:0400000080311E2805
:100008007E1480310B1F1C284E01191A0F1E13284D
:1000180040016D088A006C080A0080311C28991A72
:100028008F1E1C2840016B088A006A080A0080316C
:100038007E100900803120287430840085308500C6
:100048003E30860000308700173086311C2680310C
:10005800FC0155308400003085001130863122269D
:100068008031A0308400003085003030863122266F
:100078007E1040018531EE2DAB002D30860000301A
:1000880087000530A50000301E00A50B4828123057
:1000980085315C25803171084001A5007208A600F1
:1000A800A636A50CA636A50C2508A7002708AC007F
:1000B8002B03031D6728C830A5002508E4002C0879
:1000C800A5002508E30063082C06031974282B08EB
:1000D800031D74282C08A5002508E300E4016629FF
:1000E800C830640203187D280130A5002508E407FC
:1000F8006629C8306406031D6629C930A50025088D
:10010800E40045018E13023040016502031890286F
:1001180008306302031897280030F100F200853197
:10012800A225803166296308A500A601A701A801B8
:100138002808B5002708B4002608B3002508B2002F
:100148005C0884005D088500003FF100013FF20073
:10015800023FF300033FF4003508F8003408F700C5
:100168003308F6003208F5008331EB238031740838
:10017800B5007308B4007208B3007108B2005D08D6
:10018800A6005C08A500043025078400260803188B
:10019800260A8500003FA700013FA800023FA900EA
:1001A800033FAA003208A7023308A83B3408A93B3A
:1001B8003508AA3B2A08B5002908B4002808B30066
:1001C8002708B2003508F4003408F3003308F200B9
:1001D8003208F1000030F8000030F7003D30F6003A
:1001E8000930F5008331EB2380317408B5007308BA
:1001F800B4007208B3007108B2005D08A6005C087C
:10020800A50008302507840026080318260A85005B
:10021800003FF100013FF200023FF300033FF4000A
:100228003508F8003408F7003308F6003208F500FE
:100238008231902280317408B5007308B4007208C6
:10024800B3007108B2000030F4000F30F300423000
:10025800F2004030F1003508F8003408F7003308A0
:10026800F6003208F5008231902280317408B5001A
:100278007308B4007208B3007108B2000130A50019
:100288000030A6000030A7000030A8002508B20200
:100298002608B33B2708B43B2808B53B320845017C
:1002A8008D000D084001A500A601A535A60D25085D
:1002B800023EF1000030263DF2008531A225803152
:1002C80045018E1740016309A500A6012508FA001B
:1002D8002608FB008231E2228031023040016502AB
:1002E800031C0800863115268031003A03190800DE
:1002F80003304001A5009730890B8029A50B802980
:100308000032B9290530A5002508F1002D308531C6
:10031800292508006308A5002508AD002D08A500BB
:100328002508B1006308A5000330A536890B992973
:100338002508A6002608AE002E08A5002508B10746
:10034800AF012F08A5002508B1073730A5002508FB
:10035800B0003008A5002508B1070530A50025081C
:10036800F1002D3085312925080084316E24803133
:100378004001A500A6012608003A0319C429CC2982
:100388002508013A03198E29FF3A03198629CC2931
:10039800080082312F228131B6003608BD000230B4
:1003A8003D06031D1E2A003045018E1B0130400109
:1003B800BC0045018E1301304001B6003608E50740
:1003C800033065020318E5018431932481318431B7
:1003D8004424813102304001650203181A2A650855
:1003E800B600B7013608F1003708F2000C30F30008
:1003F8000030F40085310E2581314430B800853055
:10040800B90071083807BA007208393DBB003A08CC
:10041800DC003B08DD0001308031402040013C0C0D
:100428004501031C8E1303188E1708000130803114
:10043800402008003D03031D2B2A0310981E0314B7
:10044800031C292A400198162B2A400198120030D3
:1004580080314020080002304001430603196A2A0F
:100468000E0E0139430603196A2A4303031D4A2A5B
:10047800C3017030C1001730C20044010D084001AB
:10048800C00044010C084001BF008E2AC301C30A02
:1004980001303E3E86008701403F44010C02F100D6
:1004A800413F0D3BF20071084001C1007208C200D3
:1004B8000230C236C10C890B5D2A0030420232304C
:1004C80003194102031C8E2A013008004308031D4A
:1004D800872A01303E3E86008701403F44010C02D6
:1004E800F100413F0D3BF200400142087202031D3A
:1004F8007F2A41087102031C8E2A0230F10071081C
:10050800C300023008000230430603190E1E8E2A6B
:10051800C301C30A003008000030A3000030A20065
:100528000030A1000030A000740873047204710444
:100538000319D92AA401A40AF41BAE2A0130F13503
:10054800F20DF30DF40D890BA32A0130F900790897
:10055800A407A02A0130A035A10DA20DA30D890B77
:10056800AF2A74087802031DC32A73087702031D93
:10057800C32A72087602031DC32A71087502031C78
:10058800CE2A7108F5027208F63B7308F73B740827
:10059800F83B20140130F436F30CF20CF10C890B03
:1005A800CF2A0130A402031DAE2A2308F400220832
:1005B800F3002108F2002008F100080000307B0257
:1005C800F83003197A02031CEE2A8431932482310D
:1005D800D001D00A7B08F2007A08F100503083314C
:1005E80030238231003A031908001B2B0310181D11
:1005F8000314031C022B40011815080040011811B0
:10060800080003101A1C0314031C0D2B40011A14B4
:10061800080040011A10080003109A1C0314031C58
:10062800182B40019A14080040019A100800400154
:100638006508A000A1012108003A0319242B2F2BDB
:100648002008003A0319FA2A013A0319052B033A3C
:100658000319102B2F2B0800F90044010D08F8008E
:100668000C08F7007908860087010103031D572B42
:10067800790A860087017708C03F7808C13F720869
:10068800F4007108F300F335F40DF335F40D79082F
:10069800033E860087017308C03F7408C13F79088C
:1006A8008600870181017908033E86008701403F63
:1006B800F300413FF400790A86008701403F770242
:1006C800F500413F783BF60074087602031D6E2B57
:1006D80073087502031C752B790886008701810150
:1006E800810A790886008701010808004E019912DD
:1006F800B930F1000330F2008631342683314E01DF
:100708001912D730F1000430F20086312E268331D9
:10071800083042019F0090309D0024309E00FF3039
:100728009B0001309C005230F1000630F200863107
:100738003A2683314B30F1000630F20086314626E6
:1007480083314F30F1000630F200863140264001F7
:10075800DE01E201E1011030F3007308EE00FC0154
:10076800E001DF014E01991608007C08A03E8600D2
:100778008701810142011D1DCC2B7C08A03E86000B
:1007880087018114400169088A0068080A008331DA
:1007980042019D1CDA2B7C08A03E860087010115CA
:1007A800400167088A0066080A0083317C08A03E79
:1007B8008600870101080319E82B410153088A00C4
:1007C80052080A008331080085318B250800003063
:1007D800A3000030A2000030A1000030A000711C6E
:1007E800FD2B7508A0077608A13D7708A23D78087B
:1007F800A33D0130F535F60DF70DF80D890BFE2BED
:100808000130F436F30CF20CF10C890B052C74084A
:10081800730472047104031DF32B2308F4002208E7
:10082800F3002108F2002008F10008004001E5016A
:1008380084319324843184314424843140019816CE
:100848006508B600B7013608F1003708F2000C3029
:10085800F3000030F40085310E2584314430B800AF
:100868008530B90071083807BA007208393DBB00F5
:100878003A08DC003B08DD000130803140200800E8
:100888005D2C4E019912191242019D1365305101D8
:100898008D0008004E019912191242019D13633010
:1008A80051018D000800603051018D0083317A2399
:1008B80008006508F400F5017508003A0319652C6D
:1008C800572C7408003A03194E2C013A0319452C89
:1008D800572C080040015F0803196E2C6008A03EE1
:1008E800860087010108F1007108DE006008B03E4B
:1008F800860087010108F1007108F2000130F1005B
:100908007108E007103060020318E0014E019912E7
:1009180001304001DF024E01991672080800D0012B
:10092800D00AA22C18151A109A10080018111A14B7
:100938009A10080018111A109A1408006508F10096
:10094800F2017208003A0319AA2CB52C7108003A72
:100958000319962C013A03199A2C033A03199E2C71
:10096800B52C0800400198019A011B309200143000
:10097800940004307E01CE000330B800B901103075
:10098800CF00BA01D0013F30BB003F30D1003F302B
:10099800BC003F30D2000C30A3000130A500043069
:1009A8007D01CB00080010306E020318F02C61089E
:1009B800C03E86008701010842019A000130F0001C
:1009C80070084001E107103061020318E1010130AD
:1009D800F0007008EE0708004E0119120800863171
:1009E800052684318431B62484318531FB25843150
:1009F8008531CD25843186310D26843186312826EE
:100A080084318531E02584318531B82584318331BD
:100A18007A230800F501F601711C162D7308F507F5
:100A28007408F63D0130F335F40D890B172D0130AC
:100A3800F236F10C890B1C2D71087204031D102D60
:100A48007608F2007508F1000800F3004E019912CB
:100A580042011D12710803193F2D73088600870192
:100A680001089A000130F1020130F2007208F30720
:100A78009E182E2D3C2D4E01991642011D16080078
:100A88003F34003400340034F83441340034003446
:100A98000134003400340034FB34003400340034B2
:100AA800D7340734013400340434003400340034BB
:100AB800F4007408F300F30DF30D41011D087306EB
:100AC800033973069D001D140032003200004101F5
:100AD8009D149D186D2D1C08F2001B08F1000800DC
:100AE800013400340034003400340134013401345A
:100AF800013400340034003400340134003400344C
:100B0800003400340134003400340034003442012D
:100B18001908F0007C08B03E860087017008810043
:100B28000130F0007008FC0710307C020318FC014B
:100B38000130F00070084001DF0708007208F40077
:100B48007108F300F436F30CF436F30C730846011D
:100B5800990071080339F3000530F335FF3E031D92
:100B6800B12D73359800080044018F0190010430BD
:100B780091008D018C014E01101044010D084101B6
:100B8800D10044010C084101D000333044018E00EB
:100B9800080081307C0191001F3092001F309300C3
:100BA8001F3094001F30950096010230970098017D
:100BB80099018730900008000130450190008F01AD
:100BC8009101FF308D008C014E019010E0304501FD
:100BD8008E0008008431F324853184311A2485314C
:100BE8008B170B1764008131CD218531F62D6330C9
:100BF80051018D008F0191010630930090019201FF
:100C080008004F0196019701980199019A019B01EB
:100C18000800F03041019E009B019C0101309D00BD
:100C280008005F0803191A2E013008000030080078
:100C3800FE0012001E00FE0B1D2E00346400800111
:100C48000131890B232E0034803046019A00990126
:100C58009801080072084001ED007108EC000800D6
:100C680072084001EB007108EA00080072084001B0
:100C7800E9007108E800080072084101D300710812
:100C8800D20008007208E7007108E6000800420177
:0E0C98001D121D16080085318B25080008006E
:020000040001F9
:08000000FF3FFF3FFF3FFF3F00
:0A000E00EC3FFF3FFF07FF3FFE3FFE
:00000001FF
