:040000008031212802
:100008007E1480310B1F1F282100111E1428200088
:10001800111E14285A088A0059080A0080311F281E
:100028002100911E1F282000911E1F2858088A00B1
:1000380057080A0080317E10090080312328C73014
:100048008400853085005C308600003087000B30E6
:10005800863106268031FC013E3084000030850060
:10006800113086310C268031A030840000308500A4
:10007800303086310C267E1020008531BA2D2000C4
:10008800AB002D308600003087000530A500003019
:100098001E00A50B4C280630853149258031710892
:1000A8002000A5007208A600A636A50CA636A50C49
:1000B8002508A7002708AC002B03031D6B28C830B0
:1000C800A5002508CD002C08A5002508CC004C0863
:1000D8002C06031978282B08031D78282C08A5005E
:1000E8002508CC00CD016629C8304D0203188128A7
:1000F8000130A5002508CD076629C8304D06031D27
:100108006629C930A5002508CD001C1102304E0211
:100118000318922808304C02031899280030F1007F
:10012800F20085319125803166294C08A500A60189
:10013800A701A8012808B5002708B4002608B300BD
:100148002508B2004508840046088500003FF100F4
:10015800013FF200023FF300033FF4003508F800C6
:100168003408F7003308F6003208F5008331E0233D
:1001780080317408B5007308B4007208B3007108C0
:10018800B2004608A6004508A500043025078400EB
:1001980026080318260A8500003FA700013FA8008B
:1001A800023FA900033FAA003208A7023308A83B70
:1001B8003408A93B3508AA3B2A08B5002908B40029
:1001C8002808B3002708B2003508F4003408F30003
:1001D8003308F2003208F1000030F8000030F70070
:1001E8003D30F6000930F5008331E0238031740892
:1001F800B5007308B4007208B3007108B20046086D
:10020800A6004508A500083025078400260803181D
:10021800260A8500003FF100013FF200023FF3008B
:10022800033FF4003508F8003408F7003308F600F7
:100238003208F5008231842280317408B5007308D1
:10024800B4007208B3007108B2000030F4000F3037
:10025800F3004230F2004030F1003508F80034086D
:10026800F7003308F6003208F50082318422803125
:100278007408B5007308B4007208B3007108B200BE
:100288000130A5000030A6000030A7000030A8000B
:100298002508B2022608B33B2708B43B2808B53B1B
:1002A80032089B001B08A500A601A535A60D250848
:1002B800023EF1000030263DF20085319125803163
:1002C80020001C1520004C09A500A6012508FA00ED
:1002D8002608FB008231D6228031023020004E02EF
:1002E800031C08008531FF258031003A03190800F6
:1002F80003302000A5009730890B8029A50B8029A1
:100308000032B9290530A5002508F1002D308531C6
:100318002E2508004C08A5002508AD002D08A500CD
:100328002508B1004C08A5000330A536890B99298A
:100338002508A6002608AE002E08A5002508B10746
:10034800AF012F08A5002508B1073730A5002508FB
:10035800B0003008A5002508B1070530A50025081C
:10036800F1002D3085312E2508008431B7248031E5
:100378002000A500A6012608003A0319C429CC29A3
:100388002508013A03198E29FF3A03198629CC2931
:10039800080082312B228131B6003608BD000230B8
:1003A8003D06031D192A00301C190130BC001C1120
:1003B8000130B6003608CE0703304E020318CE01CE
:1003C80084319124813184310F248131023020001D
:1003D8004E020318152A4E08B600B7013608F10078
:1003E8003708F2000C30F3000030F4008531132593
:1003F80081316230B8008530B90071083807BA0019
:100408007208393DBB003A08C5003B08C6000130F8
:100418008031432020003C0C031C1C1103181C15C0
:10042800080001308031432008003D03031D272ABE
:10043800031022008C1E0314031C252A22008C168C
:10044800272A22008C120030803143200800023015
:10045800200061060319602A0E0E0139610603198E
:10046800602A6103031D422AE1017030DF00173062
:10047800E0001708DE001608DD00822AE101E10A23
:1004880001305C3E86008701403F1602F100413F83
:10049800173BF2007108DF007208E0000230E03616
:1004A800DF0C890B532A00306002323003195F02D7
:1004B800031C822A013008006108031D7B2A0130D1
:1004C8005C3E86008701403F1602F100413F173B22
:1004D800F20060087202031D732A5F087102031C90
:1004E800822A0230F1007108E1000230080002306F
:1004F800610603190E1E822AE101E10A0030080094
:100508000030A3000030A2000030A1000030A0009D
:1005180074087304720471040319CD2AA401A40A8F
:10052800F41BA22A0130F135F20DF30DF40D890BFD
:10053800972A0130F9007908A407942A0130A035D8
:10054800A10DA20DA30D890BA32A74087802031D1F
:10055800B72A73087702031DB72A72087602031DAB
:10056800B72A71087502031CC22A7108F5027208BD
:10057800F63B7308F73B7408F83B20140130F43657
:10058800F30CF20CF10C890BC32A0130A402031DF1
:10059800A22A2308F4002208F3002108F200200808
:1005A800F100080000307B02F83003197A02031CBE
:1005B800E32A8431912482312000E201E20A7B0897
:1005C800F2007A08F1006230833127238231003A41
:1005D80003190800132B031022000C1D0314031C1D
:1005E800F82A22000C15080022000C11080003103C
:1005F80022000E1C0314031C042B22000E140800F6
:1006080022000E100800031022008E1C0314031C85
:10061800102B22008E14080022008E1008004E08AD
:10062800A000A1012108003A03191B2B262B200842
:10063800003A0319EF2A013A0319FB2A033A03196E
:10064800072B262B0800F9001708F8001608F700F2
:100658007908860087010103031D4D2B790A86005E
:1006680087017708C03F7808C13F7208F400710815
:10067800F300F335F40DF335F40D7908033E8600E5
:1006880087017308C03F7408C13F79088600870155
:1006980081017908033E86008701403FF300413F0E
:1006A800F400790A86008701403F7702F500413F50
:1006B800783BF60074087602031D642B73087502F4
:1006C800031C6B2B7908860087018101810A790850
:1006D800860087010108080021009112AE30F10060
:1006E8000330F20086311826833121001112DC30E4
:1006F800F1000430F20086311226833108302300DD
:100708009F0090309D0024309E00FF309B000130F8
:100718009C003930F1000630F20086311E26833104
:100728003230F1000630F20086312426833136302B
:10073800F1000630F20086312926C701CB01CA0133
:100748001030F3007308DB00FC01C901C801210067
:10075800911608007C08A03E8600870181012300CD
:100768001D1DC12B7C08A03E860087018114200036
:1007780056088A0055080A00833123009D1CCF2B98
:100788007C08A03E860087010115200054088A00D5
:1007980053080A0083317C08A03E860087010108BF
:1007A8000319DD2B200052088A0051080A00833102
:1007B800080085317A2508000030A3000030A20027
:1007C8000030A1000030A000711CF22B7508A007B2
:1007D8007608A13D7708A23D7808A33D0130F5359C
:1007E800F60DF70DF80D890BF32B0130F436F30CE9
:1007F800F20CF10C890BFA2B74087304720471045F
:10080800031DE82B2308F4002208F3002108F20056
:100818002008F10008002A2C21009112111223004F
:100828009D135830210099000800210091121112DF
:1008380023009D136830210099000800F030210042
:1008480099001A1F252C83317023080020004E08B8
:10085800F400F5017508003A0319332C222C7408AA
:10086800003A0319192C013A0319102C222C0800FC
:100878002000CE0184319124843184310F248431C5
:1008880022008C1620004E08B600B7013608F10089
:100898003708F2000C30F3000030F40085311325DE
:1008A80084316230B8008530B90071083807BA0061
:1008B8007208393DBB003A08C5003B08C600013044
:1008C800803143200800013022008C008E01123054
:1008D80021008C0014308E00043023008E00033079
:1008E8008C0024008C0110308E0021009513250007
:1008F8008C018E01373026008C003F308E003F304F
:1009080027008C003F308E0004303C00A4000F30DC
:100918003D00A3000430A5000800E201E20AA32C70
:1009280022000C150E108E10080022000C110E1457
:100938008E10080022000C110E108E1408004E08AC
:10094800F100F2017208003A0319AB2CB62C7108B9
:10095800003A0319942C013A0319992C033A031904
:100968009E2CB62C0800200048080319B72C49080B
:10097800A03E860087010108F1007108C7004908F8
:10098800B03E860087010108F1007108F2000130CD
:10099800F1007108C907103049020318C901210084
:1009A800911201302000C802210091167208080037
:1009B80010305B020318F52C4A08C03E86008701F8
:1009C800010823009A000130F00070082000CA07CF
:1009D80010304A020318CA010130F0007008DB0722
:1009E8000800210011120800843167248431853100
:1009F800F725843186312E2684318531A725843127
:100A08008531E62584318531DD2584318531EF2531
:100A180084318531D2258431833170230800F50172
:100A2800F601711C1B2D7308F5077408F63D01309B
:100A3800F335F40D890B1C2D0130F236F10C890BBE
:100A4800212D71087204031D152D7608F200750812
:100A5800F1000800F3002100911223001D12710813
:100A68000319442D73088600870101089A00013094
:100A7800F1020130F2007208F3079E18332D412D60
:100A88002100911623001D160800F4007408F300D5
:100A9800F30DF30D21001D087306833973069D00BD
:100AA8001D141030890B562D003221009D149D18FD
:100AB8005B2D1C08F2001B08F10008003F340034CD
:100AC80000340034F8344134003400340134003444
:100AD80000340034FB34003400340034D734073495
:100AE800013400340434003400340034230019087D
:100AF800F0007C08B03E8600870170088100013054
:100B0800F0007008FC0710307C020318FC0101306B
:100B1800F00070082000C80708007208F400710887
:100B2800F300F436F30CF436F30C73082C009B0036
:100B380071080339F3000530F335FF3E031DA02D7E
:100B480073359A00080081303E00910014309200FD
:100B5800143093001430940014309500960102303C
:100B68009700980199018730900008008431F82493
:100B7800853184313C2485318B170B176400813112
:100B8800CD218531C22D01340034003400340034C5
:100B980001340134003400340034003499019701E1
:100BA800960111101708D0001608CF00F5309800EC
:100BB800080080302C009C009B019A013F302500E2
:100BC8009E050800F03021009E009F019B019C01BA
:100BD80001309D000800FF3020009B009A01911011
:100BE80007309C0008006830210099009A0198019C
:100BF80022009601080048080319042E0130080055
:100C080000300800FE0012001E00FE0B072E003404
:100C1800640080010131890B0D2E00347208200018
:100C2800DA007108D900080072082000D80071089D
:100C3800D700080072082000D6007108D500080007
:100C48007208D4007108D30008007208D200710835
:100C5800D1000800163021009700080023001D125B
:0C0C68001D16080085317A2508000800E0
:020000040001F9
:08000000FF3FFF3FFF3FFF3F00
:04000E007C3FFF3EF6
:00000001FF
